{
  "contractName": "payment",
  "abi": [
    {
      "inputs": [
        {
          "name": "_owner",
          "type": "address"
        }
      ],
      "payable": false,
      "stateMutability": "nonpayable",
      "type": "constructor"
    },
    {
      "anonymous": false,
      "inputs": [
        {
          "indexed": true,
          "name": "_sender",
          "type": "address"
        },
        {
          "indexed": true,
          "name": "_receiver",
          "type": "address"
        }
      ],
      "name": "channelCreated",
      "type": "event"
    },
    {
      "constant": false,
      "inputs": [
        {
          "name": "_sender",
          "type": "address"
        },
        {
          "name": "_receiver",
          "type": "address"
        }
      ],
      "name": "createChannel",
      "outputs": [
        {
          "name": "",
          "type": "uint256"
        }
      ],
      "payable": true,
      "stateMutability": "payable",
      "type": "function"
    },
    {
      "constant": false,
      "inputs": [
        {
          "name": "_channelId",
          "type": "uint256"
        }
      ],
      "name": "addEtherToChannel",
      "outputs": [],
      "payable": true,
      "stateMutability": "payable",
      "type": "function"
    },
    {
      "constant": false,
      "inputs": [
        {
          "name": "_channelId",
          "type": "uint256"
        },
        {
          "name": "amountHash",
          "type": "bytes32"
        },
        {
          "name": "amount",
          "type": "uint256"
        },
        {
          "name": "signature",
          "type": "bytes32"
        },
        {
          "name": "r",
          "type": "bytes32"
        },
        {
          "name": "s",
          "type": "bytes32"
        },
        {
          "name": "v",
          "type": "uint8"
        }
      ],
      "name": "withdraw",
      "outputs": [],
      "payable": false,
      "stateMutability": "nonpayable",
      "type": "function"
    }
  ],
  "bytecode": "0x608060405234801561001057600080fd5b506040516020806107d18339810180604052602081101561003057600080fd5b8101908080519060200190929190505050806000806101000a81548173ffffffffffffffffffffffffffffffffffffffff021916908373ffffffffffffffffffffffffffffffffffffffff16021790555050610740806100916000396000f3fe608060405260043610610057576000357c0100000000000000000000000000000000000000000000000000000000900463ffffffff16806335a1ba6f1461005c5780635b7e3189146100d4578063928d5b2c1461014e575b600080fd5b6100be6004803603604081101561007257600080fd5b81019080803573ffffffffffffffffffffffffffffffffffffffff169060200190929190803573ffffffffffffffffffffffffffffffffffffffff16906020019092919050505061017c565b6040518082815260200191505060405180910390f35b3480156100e057600080fd5b5061014c600480360360e08110156100f757600080fd5b81019080803590602001909291908035906020019092919080359060200190929190803590602001909291908035906020019092919080359060200190929190803560ff169060200190929190505050610324565b005b61017a6004803603602081101561016457600080fd5b81019080803590602001909291905050506105b2565b005b6000803490506001600081548092919060010191905055508360026000600154815260200190815260200160002060000160006101000a81548173ffffffffffffffffffffffffffffffffffffffff021916908373ffffffffffffffffffffffffffffffffffffffff1602179055508260026000600154815260200190815260200160002060010160006101000a81548173ffffffffffffffffffffffffffffffffffffffff021916908373ffffffffffffffffffffffffffffffffffffffff1602179055508060026000600154815260200190815260200160002060020181905550600060026000600154815260200190815260200160002060030160006101000a81548160ff021916908315150217905550600060036000600154815260200190815260200160002060006101000a81548160ff0219169083151502179055508273ffffffffffffffffffffffffffffffffffffffff168473ffffffffffffffffffffffffffffffffffffffff167fb6bcbfa0a5dd0ba74d0f808462056700b66d4539b2f38949dae52c4ef5cc64cf60405160405180910390a360015491505092915050565b6002600088815260200190815260200160002060000160009054906101000a900473ffffffffffffffffffffffffffffffffffffffff1673ffffffffffffffffffffffffffffffffffffffff1660018583868660405160008152602001604052604051808581526020018460ff1660ff1681526020018381526020018281526020019450505050506020604051602081039080840390855afa1580156103ce573d6000803e3d6000fd5b5050506020604051035173ffffffffffffffffffffffffffffffffffffffff16141515610463576040517f08c379a00000000000000000000000000000000000000000000000000000000081526004018080602001828103825260158152602001807f4e6f7420612076616c6964207369676e6174757265000000000000000000000081525060200191505060405180910390fd5b838614156105a957600085600260008a8152602001908152602001600020600201540390506000600260008a8152602001908152602001600020600201819055506002600089815260200190815260200160002060010160009054906101000a900473ffffffffffffffffffffffffffffffffffffffff1673ffffffffffffffffffffffffffffffffffffffff166108fc879081150290604051600060405180830381858888f19350505050158015610520573d6000803e3d6000fd5b506002600089815260200190815260200160002060000160009054906101000a900473ffffffffffffffffffffffffffffffffffffffff1673ffffffffffffffffffffffffffffffffffffffff166108fc829081150290604051600060405180830381858888f1935050505015801561059d573d6000803e3d6000fd5b506105a7886106e5565b505b50505050505050565b600015156003600083815260200190815260200160002060009054906101000a900460ff1615151415156105e557600080fd5b6002600082815260200190815260200160002060000160009054906101000a900473ffffffffffffffffffffffffffffffffffffffff1673ffffffffffffffffffffffffffffffffffffffff163373ffffffffffffffffffffffffffffffffffffffff161415156106be576040517f08c379a000000000000000000000000000000000000000000000000000000000815260040180806020018281038252601d8152602001807f4f6e6c79207468652073656e6465722063616e206164642066756e647300000081525060200191505060405180910390fd5b34600260008381526020019081526020016000206002016000828254019250508190555050565b60016003600083815260200190815260200160002060006101000a81548160ff0219169083151502179055505056fea165627a7a723058201cbbc8c0e2e7b1c5cc3da256a7b5ab18e5209c0ab81a39a4d60d5e95a7b618e70029",
  "source": "pragma solidity >=0.4.21 <0.6.0;\n\n//TODO\n//Expire channel based on time.\n\ncontract payment{\n\n    address owner;\n    uint channelId;\n\n    struct Channel{\n        address payable sender;\n        address payable receiver;\n        uint amount;\n        bool expired;\n        address payable beneficiary;\n        //uint expiryTime;\n    }\n\n    \n    mapping(uint => Channel)channel;\n    mapping(uint => bool)channelExpired;\n    mapping(uint => uint)amountInChannel;\n\n    event channelCreated(address indexed _sender, address indexed _receiver);\n\n    constructor(address _owner) public{\n        owner = _owner;\n\n    }\n\n    function createChannel(address payable _sender, address payable _receiver)public payable returns(uint){\n        uint _amount = msg.value;\n        channelId ++;\n        channel[channelId].sender = _sender;\n        channel[channelId].receiver = _receiver;\n        channel[channelId].amount = _amount;\n        channel[channelId].expired = false;\n        channelExpired[channelId] = false;\n        \n        \n        emit channelCreated(_sender, _receiver);\n        return channelId;\n    }\n\n    //@notice add ethers to the channel.\n    function addEtherToChannel(uint _channelId)public payable{\n        //Only the sender can add ethers to the channel.\n        require(channelExpired[_channelId] == false);\n        require(msg.sender == channel[_channelId].sender,\"Only the sender can add funds\");\n        channel[_channelId].amount += msg.value;\n    }\n\n    \n    function withdraw(uint _channelId, bytes32 amountHash, uint amount, bytes32 signature, bytes32 r, bytes32 s, uint8 v)public {\n        \n        require(ecrecover(signature, v, r, s) == channel[_channelId].sender,\"Not a valid signature\");\n        //signature should be equal to amountHash.\n        //This check is only for verify the amount.\n        //since the data we sign is only the amount, amountHash should match signature;\n        if(amountHash == signature){\n            //senderBalance is (balance in contract - the bill amount);\n            uint senderBalance = channel[_channelId].amount - amount;\n            channel[_channelId].amount = 0;\n            channel[_channelId].receiver.transfer(amount);\n            channel[_channelId].sender.transfer(senderBalance);\n            closeChannel(_channelId);\n        }        \n    }\n    function closeChannel(uint _channelId) private{\n        channelExpired[_channelId] = true;\n    }\n}",
  "sourcePath": "/home/workspace/projects/microPayments/contracts/payment.sol",
  "compiler": {
    "name": "solc",
    "version": "0.5.0+commit.1d4f565a.Emscripten.clang"
  },
  "schemaVersion": "3.0.0",
  "updatedAt": "2019-01-10T16:18:59.741Z",
  "devdoc": {
    "methods": {}
  },
  "userdoc": {
    "methods": {}
  }
}