{
  "contractName": "payment",
  "abi": [
    {
      "constant": true,
      "inputs": [],
      "name": "channelId",
      "outputs": [
        {
          "name": "",
          "type": "uint256"
        }
      ],
      "payable": false,
      "stateMutability": "view",
      "type": "function",
      "signature": "0xe2cee544"
    },
    {
      "inputs": [
        {
          "name": "_owner",
          "type": "address"
        }
      ],
      "payable": false,
      "stateMutability": "nonpayable",
      "type": "constructor",
      "signature": "constructor"
    },
    {
      "anonymous": false,
      "inputs": [
        {
          "indexed": true,
          "name": "_sender",
          "type": "address"
        },
        {
          "indexed": true,
          "name": "_receiver",
          "type": "address"
        },
        {
          "indexed": false,
          "name": "",
          "type": "uint256"
        }
      ],
      "name": "channelCreated",
      "type": "event",
      "signature": "0xaa404701710a8e1a6f5d3e84cafffdb09c86673cae95c921a279ba9775442b83"
    },
    {
      "constant": false,
      "inputs": [
        {
          "name": "_sender",
          "type": "address"
        },
        {
          "name": "_receiver",
          "type": "address"
        }
      ],
      "name": "createChannel",
      "outputs": [
        {
          "name": "",
          "type": "uint256"
        }
      ],
      "payable": true,
      "stateMutability": "payable",
      "type": "function",
      "signature": "0x35a1ba6f"
    },
    {
      "constant": false,
      "inputs": [
        {
          "name": "_channelId",
          "type": "uint256"
        }
      ],
      "name": "addEtherToChannel",
      "outputs": [],
      "payable": true,
      "stateMutability": "payable",
      "type": "function",
      "signature": "0x928d5b2c"
    },
    {
      "constant": false,
      "inputs": [
        {
          "name": "_channelId",
          "type": "uint256"
        },
        {
          "name": "amount",
          "type": "uint256"
        },
        {
          "name": "amountHash",
          "type": "bytes"
        },
        {
          "name": "messageHash",
          "type": "bytes32"
        },
        {
          "name": "r",
          "type": "bytes32"
        },
        {
          "name": "s",
          "type": "bytes32"
        },
        {
          "name": "v",
          "type": "uint8"
        }
      ],
      "name": "withdraw",
      "outputs": [],
      "payable": false,
      "stateMutability": "nonpayable",
      "type": "function",
      "signature": "0xb9b83b77"
    }
  ],
  "bytecode": "0x608060405234801561001057600080fd5b506040516020806109c28339810180604052602081101561003057600080fd5b8101908080519060200190929190505050806000806101000a81548173ffffffffffffffffffffffffffffffffffffffff021916908373ffffffffffffffffffffffffffffffffffffffff16021790555050610931806100916000396000f3fe608060405260043610610062576000357c0100000000000000000000000000000000000000000000000000000000900463ffffffff16806335a1ba6f14610067578063928d5b2c146100df578063b9b83b771461010d578063e2cee54414610214575b600080fd5b6100c96004803603604081101561007d57600080fd5b81019080803573ffffffffffffffffffffffffffffffffffffffff169060200190929190803573ffffffffffffffffffffffffffffffffffffffff16906020019092919050505061023f565b6040518082815260200191505060405180910390f35b61010b600480360360208110156100f557600080fd5b81019080803590602001909291905050506103f4565b005b34801561011957600080fd5b50610212600480360360e081101561013057600080fd5b8101908080359060200190929190803590602001909291908035906020019064010000000081111561016157600080fd5b82018360208201111561017357600080fd5b8035906020019184600183028401116401000000008311171561019557600080fd5b91908080601f016020809104026020016040519081016040528093929190818152602001838380828437600081840152601f19601f820116905080830192505050505050509192919290803590602001909291908035906020019092919080359060200190929190803560ff169060200190929190505050610592565b005b34801561022057600080fd5b506102296108d0565b6040518082815260200191505060405180910390f35b6000803490506001600081548092919060010191905055508360026000600154815260200190815260200160002060000160006101000a81548173ffffffffffffffffffffffffffffffffffffffff021916908373ffffffffffffffffffffffffffffffffffffffff1602179055508260026000600154815260200190815260200160002060010160006101000a81548173ffffffffffffffffffffffffffffffffffffffff021916908373ffffffffffffffffffffffffffffffffffffffff1602179055508060026000600154815260200190815260200160002060020181905550600060026000600154815260200190815260200160002060030160006101000a81548160ff021916908315150217905550600060036000600154815260200190815260200160002060006101000a81548160ff0219169083151502179055508273ffffffffffffffffffffffffffffffffffffffff168473ffffffffffffffffffffffffffffffffffffffff167faa404701710a8e1a6f5d3e84cafffdb09c86673cae95c921a279ba9775442b836001546040518082815260200191505060405180910390a360015491505092915050565b80600015156003600083815260200190815260200160002060009054906101000a900460ff161515141515610491576040517f08c379a000000000000000000000000000000000000000000000000000000000815260040180806020018281038252600f8152602001807f4368616e6e656c2065787069726564000000000000000000000000000000000081525060200191505060405180910390fd5b6002600083815260200190815260200160002060000160009054906101000a900473ffffffffffffffffffffffffffffffffffffffff1673ffffffffffffffffffffffffffffffffffffffff163373ffffffffffffffffffffffffffffffffffffffff1614151561056a576040517f08c379a000000000000000000000000000000000000000000000000000000000815260040180806020018281038252601d8152602001807f4f6e6c79207468652073656e6465722063616e206164642066756e647300000081525060200191505060405180910390fd5b3460026000848152602001908152602001600020600201600082825401925050819055505050565b86600015156003600083815260200190815260200160002060009054906101000a900460ff16151514151561062f576040517f08c379a000000000000000000000000000000000000000000000000000000000815260040180806020018281038252600f8152602001807f4368616e6e656c2065787069726564000000000000000000000000000000000081525060200191505060405180910390fd5b6002600089815260200190815260200160002060000160009054906101000a900473ffffffffffffffffffffffffffffffffffffffff1673ffffffffffffffffffffffffffffffffffffffff1660018684878760405160008152602001604052604051808581526020018460ff1660ff1681526020018381526020018281526020019450505050506020604051602081039080840390855afa1580156106d9573d6000803e3d6000fd5b5050506020604051035173ffffffffffffffffffffffffffffffffffffffff1614151561076e576040517f08c379a00000000000000000000000000000000000000000000000000000000081526004018080602001828103825260158152602001807f4e6f7420612076616c6964207369676e6174757265000000000000000000000081525060200191505060405180910390fd5b84868051906020012014156108c657600087600260008b8152602001908152602001600020600201540390506000600260008b815260200190815260200160002060020181905550600260008a815260200190815260200160002060010160009054906101000a900473ffffffffffffffffffffffffffffffffffffffff1673ffffffffffffffffffffffffffffffffffffffff166108fc899081150290604051600060405180830381858888f19350505050158015610832573d6000803e3d6000fd5b506000811415156108bb57600260008a815260200190815260200160002060000160009054906101000a900473ffffffffffffffffffffffffffffffffffffffff1673ffffffffffffffffffffffffffffffffffffffff166108fc829081150290604051600060405180830381858888f193505050501580156108b9573d6000803e3d6000fd5b505b6108c4896108d6565b505b5050505050505050565b60015481565b60016003600083815260200190815260200160002060006101000a81548160ff0219169083151502179055505056fea165627a7a723058207c6ebb647cebe920ab37aaa15d8a3c619840150c4e0e8fb4b3be4d89106219490029",
  "source": "pragma solidity >=0.4.21 <0.6.0;\n\n//TODO\n//Expire channel based on time.\n\ncontract payment{\n\n    address owner;\n    uint public channelId;\n\n    struct Channel{\n        address payable sender;\n        address payable receiver;\n        uint amount;\n        bool expired;\n        address payable beneficiary;\n        //uint expiryTime;\n    }\n\n    \n    mapping(uint => Channel)channel;\n    mapping(uint => bool)channelExpired;\n    mapping(uint => uint)amountInChannel;\n\n    event channelCreated(address indexed _sender, address indexed _receiver, uint);\n\n    constructor(address _owner) public{\n        owner = _owner;\n\n    }\n\n    modifier validChannel(uint _channelId){\n       require(channelExpired[_channelId] == false,\"Channel expired\");\n        _;\n    }\n\n    function createChannel(address payable _sender, address payable _receiver)public payable returns(uint){\n        uint _amount = msg.value;\n        channelId ++;\n        channel[channelId].sender = _sender;\n        channel[channelId].receiver = _receiver;\n        channel[channelId].amount = _amount;\n        channel[channelId].expired = false;\n        channelExpired[channelId] = false;\n        \n        emit channelCreated(_sender, _receiver, channelId);\n        return channelId;\n    }\n\n    //@notice add ethers to the channel.\n    function addEtherToChannel(uint _channelId)public payable validChannel(_channelId){\n        //Only the sender can add ethers to the channel.   \n        require(msg.sender == channel[_channelId].sender,\"Only the sender can add funds\");\n        channel[_channelId].amount += msg.value;\n    }\n\n    \n    function withdraw(uint _channelId, uint amount,bytes memory amountHash, bytes32 messageHash, bytes32 r, bytes32 s, uint8 v)public validChannel(_channelId) {\n        \n        //get sha3 hash of amount without prepend(offchain).compare it with keccak value of amount(onchain)\n        //web3.utils.soliditySha3({type: \"uint256\", value: amount}) == keccak256(amount)\n        require(ecrecover(messageHash, v, r, s) == channel[_channelId].sender,\"Not a valid signature\");\n\n         //senderBalance is (balance in contract - the bill amount);\n         // check the amount by comparing the (hash of amount) with messageHash\n         \n         if(keccak256(amountHash) == messageHash){\n            uint senderBalance = channel[_channelId].amount - amount;\n            channel[_channelId].amount = 0;\n            channel[_channelId].receiver.transfer(amount);\n\t    if(senderBalance != 0){\n            \tchannel[_channelId].sender.transfer(senderBalance);\n\t    }\n            closeChannel(_channelId);\n         }\n                 \n         \n               \n    }\n\n    function closeChannel(uint _channelId) private{\n        channelExpired[_channelId] = true;\n    }\n}\n",
  "sourcePath": "/home/workspace/projects/microPayments/contracts/payment.sol",
  "compiler": {
    "name": "solc",
    "version": "0.5.0+commit.1d4f565a.Emscripten.clang"
  },
  "schemaVersion": "3.0.1",
  "updatedAt": "2019-02-08T17:40:44.867Z",
  "devdoc": {
    "methods": {}
  },
  "userdoc": {
    "methods": {}
  }
}